:020000040800F2
:100000008806002065010008D90900085D0900087C
:10001000D7090008D1070008CD1B00080000000028
:100020000000000000000000000000008B1200082B
:10003000D307000800000000950E0008D91600083C
:100040007B0100087B0100087B0100087B010008A0
:100050007B0100087B0100087B0100087B01000890
:100060007B0100087B0100087B0100087B01000880
:100070007B0100087B0100087B0100087B01000870
:100080007B0100087B0100087B0100087B01000860
:100090007B0100087B0100087B0100087B01000850
:1000A0007B0100087B0100087B0100087B01000840
:1000B0007B0100087B0100087B0100087B01000830
:1000C0007B0100087B0100087B0100087B01000820
:1000D0007B010008E91600087B0100087B0100088D
:1000E0007B0100087B0100087B0100080000000084
:1000F0000000000000000000000000000000000000
:1001000000000000000000007B0100087B010008E7
:100110007B0100087B0100087B0100087B010008CF
:100120007B0100087B0100087B0100087B010008BF
:100130007B0100087B0100087B0100087B010008AF
:100140007B0100087B0100087B0100087B0100089F
:10015000DFF80CD000F02AF900480047151D000810
:100160008806002005480047FEE7FEE7FEE7FEE7B9
:10017000FEE7FEE7FEE7FEE7FEE7FEE751010008C7
:1001800040EA01039B0703D009E008C9121F08C019
:10019000042AFAD203E011F8013B00F8013B521E99
:1001A000F9D270470FB400B58DB010A909900B902B
:1001B00000914FF0FF300A9000200C900548069007
:1001C000054807906A4609A80F9900F0C1F80DB0DC
:1001D0005DF814FB6D0300088B0300082DE9FF5F39
:1001E0001D464FF0FF3BD5E9014691465F464FF073
:1001F0000008A9697F1C01988847296A82468847B8
:100200000028F6D1BAF1FF3F0CD024F4C064002ED0
:1002100019DD600614D5BAF12B0F09D0BAF12D0FF4
:100220000ED103E0584604B0BDE8F09F44F480646A
:10023000A9697F1C01988847761E8246002E02DD40
:10024000BAF1300F03D0B9F1000F26D032E0A9691E
:10025000761E44F400747F1C019888478246002E65
:1002600005DDBAF1780F06D0BAF1580F03D0B9F115
:10027000000F10D01EE0B9F1000F02D0B9F1100F3D
:1002800018D1A969761E24F400747F1C0198884750
:100290008246102002E0082000E00A20814609E0A2
:1002A00008FB0908A969761E44F400747F1C0198B4
:1002B00088478246002E05DD4946504600F034F856
:1002C0000028EDDAE96901988847A00502D46FF0AB
:1002D0000100A8E7E00725D1600613D5600502D527
:1002E000C8F1000000E0404629680A1D2A6009683C
:1002F000220501D5087015E0220701D5088011E01C
:1003000008600FE02868011D29600068210502D5FA
:1003100080F8008006E0210702D5A0F8008001E007
:10032000C0F8008038467EE73A2800D2303820F006
:100330002002412A01D3A2F13700884201D34FF0B5
:10034000FF30704702681144137801601846704707
:10035000D1600449516104491162002111611146C3
:1003600000F03CB845030008D1030008426842B1E0
:10037000016811F8013B23B1521EC0E90012184672
:1003800070470121C160881E704742685AB1C36836
:10039000016843B983688B4205D0491E521CC0E9ED
:1003A0000012002070474FF0FF307047064C074D99
:1003B00006E0E06840F0010394E807009847103435
:1003C000AC42F6D3FFF7C8FE3421000854210008E0
:1003D000C0B24FF4F05100F097B900002DE9F34F8F
:1003E0008BB04FF0000801F10C000C464FF0010BF0
:1003F00046460DF1080A0190626901210198904773
:1004000005002DD0252D2CD0216A8847C0B1626906
:10041000012101989047216A88470028F7D1411EA1
:1004200062690198904700E0761CA1690B988847A3
:10043000216A88470028F7D1E1690B988847DBE7F4
:10044000A1690B9888470746A84201D1761CD3E7DB
:10045000E1690B9888477F1C02D1B8F1000F6FD07B
:1004600046E1002762693D463946019890472A28AF
:1004700004D162690121019890470125DFF8849237
:100480006269012101989047A0F130010A290AD23E
:100490004F45E5DC07EB870100EB4107303FDFD438
:1004A00045F01005ECE7E90601D46FF000476C2831
:1004B0000AD04C2814D0682815D06A280DD074288A
:1004C0001CD07A281AD01DE062690121019890475A
:1004D0006C2802D045F0040514E045F002050DE05B
:1004E00045F020050AE062690121019890476828DB
:1004F00002D045F0080505E045F400656269012178
:1005000001989047C4E9015765283DD019DC582867
:100510007AD00CDC452837D004DC252826D04128A9
:1005200031D131E046282FD047282CD12CE05B2850
:1005300077D0612828D063287CD0642823D15AE062
:10054000D0E06F2848D008DC66281DD067281BD073
:10055000692821D06E2816D127E0702845D073284D
:1005600068D0752847D078280DD14DE0A1690B9847
:100570008847054625283FF469AFE1690B9888470D
:100580006D1C3FF46AAFB3E023466A466FF001008A
:100590000B99AFF300809EE045F040006060A80733
:1005A00023464FF0000236D43EE0E8077FF447AF21
:1005B0002068011D21600068290501D506701BE730
:1005C000290701D5068017E7A90703D5F117C0E968
:1005D000006111E706600FE745F040006060A80782
:1005E00023464FF0080216D41EE040F60E0125EA1D
:1005F0000100606016E045F040006060A8072346F7
:100600004FF00A0207D40FE045F040006060A807F1
:1006100008D5234610226FF001000B99AFF300803C
:1006200059E007E0234610226FF001000B99FFF715
:10063000D5FD50E04FF000094F464B46632802D0ED
:100640005B2806D040E0E80601D40120A060012725
:100650003AE062690121019890475E2805D14FF088
:1006600001096269494601989047216939B9002119
:100670000A46534643F82120491C0829FADBB0B347
:10068000216969B9C11700EBD16253110AEB8301EB
:1006900022F01F02821A01200B68904003430B6076
:1006A00062690121019890475D28E8D1B9F1000FF6
:1006B00009D00020514651F82020D24341F8202093
:1006C000401C0828F7DB02AB224600976FF00100C0
:1006D0000B99AFF3008000280CDA401C08D1BBF165
:1006E000000F05D04FF0FF300DB0BDE8F08FFFE7F1
:1006F0004046F9E7E90701D108F1010806444FF047
:10070000000B79E6CCCCCC0C7F2801D9002208E084
:10071000064A02EB5002C007127800D1120902F01B
:100720000F0201209040084070470000E81F0008B9
:1007300070B5054616460C46EE2000F0A7FDB12028
:1007400000F0A4FD232000F0A1FD280A00F09EFD8A
:10075000E8B200F09BFD200A00F098FDE0B200F046
:1007600095FD304600F092FDFF2000F08FFDFC204B
:1007700000F08CFDFF2000F089FDBDE87040FF20F7
:1007800000F084BD70B505460C46EE2000F07EFDFD
:10079000B12000F07BFD202000F078FD280A00F059
:1007A00075FDE8B200F072FD200A00F06FFDE0B2C6
:1007B00000F06CFDFF2000F069FDFC2000F066FDFC
:1007C000FF2000F063FDBDE87040FF2000F05EBD3B
:1007D000FEE7704704490A6822F010020A600A68BE
:1007E00002430A607047000000200240034A11687B
:1007F00001F0380101431160704700000020024001
:10080000F0B5CA78002502F00F03D20601D58A7828
:1008100013430A784FF00F0E12F0FF0F4FF0010252
:100820001CD004680F8802FA05F63740B74211D190
:100830004FEA850C0EFA0CF724EA070703FA0CF4CA
:100840003C43CF78282F02D0482F02D002E04661E7
:1008500000E006616D1C082DE4D304600C88FF2CB9
:100860001ED944685FF0000606F1080702FA07F592
:100870000F882F40AF420FD14FEA860C0EFA0CF7CB
:10088000BC4303FA0CF73C43CF78282F00D14561D5
:10089000CF78482F00D10561761C082EE4D3446040
:1008A000F0BD70B505460C46EE2000F0EFFCB1201F
:1008B00000F0ECFC112000F0E9FC280A00F0E6FC56
:1008C000E8B200F0E3FC200A00F0E0FCE0B200F047
:1008D000DDFCFF2000F0DAFCFC2000F0D7FCFF205C
:1008E00000F0D4FCBDE87040FF2000F0CFBC2DE943
:1008F000F0410646984617460D46EE20069C00F04D
:10090000C5FCB12000F0C2FC322000F0BFFC300A70
:1009100000F0BCFCF0B200F0B9FC280A00F0B6FC14
:10092000E8B200F0B3FC384600F0B0FC200A00F05A
:10093000ADFCE0B200F0AAFC2146404600F0BCFC51
:10094000FF2000F0A3FCFC2000F0A0FCFF2000F042
:100950009DFCBDE8F041FF2000F098BCFEE72DE9CA
:10096000F04105461E4617460C46EE2000F08EFC70
:10097000B12000F08BFC602000F088FC280A00F019
:1009800085FCE8B200F082FC200A00F07FFCE0B2B7
:1009900000F07CFC3146384600F08EFCFF2000F071
:1009A00075FCFC2000F072FCFF2000F06FFCBDE83D
:1009B000F041FF2000F06ABC08B54FF4C06000F0C1
:1009C00043F825208DF8000001208DF801006846CD
:1009D00000F008F808BDFEE770470122022103205D
:1009E00000F09CBC70B50F23C47801780122F4B1EB
:1009F000144C2468457804F4E064C4F5E064240AE7
:100A0000C4F10406E3408478B5401C402C4301F156
:100A1000E021230181F80034007800F01F018A40B2
:100A20004009800000F1E020C0F8002170BD01F015
:100A30001F0082404809800000F1E020C0F88021BA
:100A400070BD00000CED00E0024908430249086057
:100A5000704700000000FA050CED00E038B50023F7
:100A60000125334C0B281ED0082824D00D282AD06D
:100A7000052817D120460329406A51D0042911D1F5
:100A8000401C6062642801DB642060620246012130
:100A9000052000F0E8FC0095002302210520626A91
:100AA00000F040FD38BD022903D00329FAD1E561E9
:100AB00038BDE36138BD0829FCD1012AFAD1BDE86F
:100AC000384000F059BB04290DD00529F2D1E27855
:100AD00001210D2000F0FCFC2279BDE83840022104
:100AE0000D2000F0F5BC6078062801D800220EE049
:100AF000C11F052901D8012209E0A0F10D01052936
:100B000001D8022203E01338042804D80322032169
:100B10000D2000F0DDFC6078E070A078207138BD19
:100B2000401E6062002800DC6362626AAFE700007A
:100B30000000002008B5052808D10548002302213F
:100B4000426201200090052000F0ECFC08BD00008E
:100B5000000000202DE9F84FDFF808A1DDE90B5473
:100B600004F00F07240904EB840407EB440700F0AA
:100B70000F04000900EB800004EB400001F00F04BB
:100B8000090901EB810104EB410902F00F0112098F
:100B900002EB820201EB42041A090A9E03F00F01E4
:100BA00002EB820201EB4208320906F00F0102EB70
:100BB0008202CAF8187001EB42072A0905F00F01FA
:100BC00002EB820201EB4206012502462B46294632
:100BD0000820009500F0A6FC01234A4602210820C7
:100BE000009500F09FFC0123424603210820009558
:100BF00000F098FC01233A4604210820009500F0FB
:100C000091FC0123324605210820009500F08AFC62
:100C10000095012306210820DAF8182000F082FC54
:100C200094B1012C12D0022C12D0032C12D0042C1F
:100C300012D0052C12D0062C12D10BA2BDE8F84F11
:100C40000721082000F0B3BC09A2F7E70AA2F5E7E4
:100C50000BA2F3E70CA2F1E70DA2EFE70EA2EDE77E
:100C6000BDE8F88F00000020D0C7C6DAC1F9000047
:100C7000D0C7C6DAC8D50000D0C7C6DAD2BB0000DC
:100C8000D0C7C6DAB6FE0000D0C7C6DAC8FD00007D
:100C9000D0C7C6DACBC40000D0C7C6DACEE50000A4
:100CA0001FB53C4C0328E08003D10122114600F01F
:100CB00035FBE088092802D10121FFF763FDE088B8
:100CC000052802D10121FFF7ECFDE0880E2808D1AC
:100CD00031A30FCB8DE80F006A4601210E2000F0F2
:100CE00066FCE0880F2844D100231A46012100F059
:100CF00092FA0122002311460F2000F08CFA002303
:100D0000022201210F2000F086FA00230322012194
:100D10000F2000F080FA0023042201210F2000F0B0
:100D20007AFA0023052201210F2000F074FA002333
:100D3000062201210F2000F06EFA00230722012174
:100D40000F2000F068FA4FF4FA6000F0D5FF00239E
:100D50001A4601210F2000F024FA01220023114637
:100D60000F2000F01EFA0023022201210F2000F0C4
:100D700018FAE08811280CD10B480122D0E90010A4
:100D8000CDE900100321112000F0C8FA684600F0F8
:100D900082F81FBD000000207777772E677A2D64D8
:100DA000632E636F6D000000781E00080D2806D1C9
:100DB0000348012900D14270022900D18270704796
:100DC000000000207CB514460022019207280FD1B4
:100DD000012502290DD005290AD12246042100F05F
:100DE00042FB0023224606210720009500F09AFBD3
:100DF0007CBD22460121072000F035FB002322465E
:100E000003210720009500F08DFB6042FF2101EBDC
:100E1000400204A101A800F0DBFE9DF8040000F0F0
:100E200064FA7CBD256300007CB513460D4604289A
:100E300024D1002401AA12A118460194FFF7B2F9A7
:100E4000022D1BD10198002801DA019404E04FF42F
:100E5000BE71884200DD019101240023009402212B
:100E60000420019A00F05EFB0198012300EBD07092
:100E7000421005210420009400F054FB7CBD0000CA
:100E8000256C6400082804D1072902D1642000F0F1
:100E90006FBA7047704770B505460024EE2000F029
:100EA000F5F935B1285D00F0F1F9641CE4B2132CBA
:100EB000F8D3FF2000F0EAF9FC2000F0E7F9FF206A
:100EC00000F0E4F9BDE87040FF2000F0DFB9000059
:100ED000FEB58468B0F8031024BA24F0FF05C47A84
:100EE0004BBA4678B0F8051025438778C2792C4C68
:100EF00049BA0D2E12DD0F2E10D0552E4CD0B12E2A
:100F00000DD0F72E0AD1A079227AE1798DE8070079
:100F100063792279E178A078FFF71CFEFEBD012FEE
:100F20000BD0103A0C2AF9D2DFE802F00C131B2286
:100F30000606063006060629F0E71846BDE8FE401C
:100F4000FFF7AEBE427A03B01846BDE8F040FFF7A7
:100F500085BD03B000F10802BDE8F0401846FFF778
:100F600063BF03B02A46BDE8F0401846FFF7E2BD74
:100F700003B02A46BDE8F0401846FFF723BF027AC7
:100F800003B01846BDE8F040FFF710BF03B01846A5
:100F9000BDE8F040FFF776BFBDE8FE40FFF71DBD9E
:100FA00044000020044A0029116901D0014300E0F7
:100FB000814311617047000000100240044A00297B
:100FC000916901D0014300E08143916170470000C5
:100FD00000100240044A0029D16801D0014300E01A
:100FE0008143D16070470000001002400C48016846
:100FF00041F00101016041680A4A11404160016805
:10100000094A11400160016821F4802101604168B2
:1010100021F4FE0141604FF41F0181607047000020
:10102000001002400000FFF8FFFFF6FE30B51F4938
:101030004A6812F00C031E4A03D0042B01D0082B7F
:1010400021D002604A680F231A4C03EA1212A35CF3
:101050000268DA4042604B68072505EA1323E35C27
:1010600022FA03F383604B6805EAD323E35CDA409A
:10107000C2604968032303EA9131231F595CB2FB24
:10108000F1F1016130BD4A684B6802F470124FF013
:10109000020413F4803F04EB924202D04B689B039E
:1010A00001D5054B00E0024B5A43CAE7001002404D
:1010B00000127A002C00002000093D0002460020AA
:1010C00053090949012B0BD0022B0BD0D1F8241066
:1010D00002F01F02012393400B4200D00120704711
:1010E0000968F5E7096AF3E7001002400248406822
:1010F00000F00C007047000000100240034A5168E5
:1011000021F0F001014351607047000000100240DF
:10111000014908607047000000004242034A5168DC
:1011200021F4E0610143516070470000001002406B
:1011300003494A6822F4605242EAC000486070479E
:10114000001002400149086670470000000042425A
:10115000034A5368084323F47C13184350607047D4
:1011600000100240034A516821F00301014351601D
:10117000704700000010024010B5EE2000F086F825
:10118000822000F083F8FF2000F080F8FC2000F0BF
:101190007DF8FF2000F07AF8BDE81040FF2000F055
:1011A00075B82DE9F04107461D4690460E460024CD
:1011B000EE2000F06BF8B12000F068F8512000F04C
:1011C00065F8380A00F062F8F8B200F05FF8300A0B
:1011D00000F05CF8F0B200F059F84FEA182000F087
:1011E00055F808F0FF0000F051F835B1285D00F027
:1011F0004DF8641CE4B2072CF8D3FF2000F046F849
:10120000FC2000F043F8FF2000F040F8BDE8F0417A
:10121000FF2000F03BB82DE9F04107461D469046FF
:101220000E460024EE2000F031F8B12000F02EF838
:10123000502000F02BF8380A00F028F8F8B200F03F
:1012400025F8300A00F022F8F0B200F01FF84FEA5B
:10125000182000F01BF808F0FF0000F017F835B177
:10126000285D00F013F8641CE4B2072CF8D3FF20CB
:1012700000F00CF8FC2000F009F8FF2000F006F860
:10128000BDE8F041FF2000F001B8704710B5094CEF
:101290000146204600F008FB8021204600F07CFA41
:1012A0000028F9D04021204600F076FA0028F9D035
:1012B00010BD00000038014070B50D460646002400
:1012C00004E0305DFFF7E2FF641CA4B2AC42F8D347
:1012D00070BD000010B5044603E000BFFFF7D6FF65
:1012E000641C20780028F9D110BD10B50446EE200A
:1012F000FFF7CCFF6020FFF7C9FF2046FFF7C6FFCE
:10130000FF20FFF7C3FFFC20FFF7C0FFFF20FFF720
:10131000BDFFBDE81040FF20FFF7B8BF70B5054620
:1013200016460C46EE20FFF7B1FFB120FFF7AEFFE7
:101330001020FFF7ABFF280AFFF7A8FFE8B2FFF77E
:10134000A5FF200AFFF7A2FFE0B2FFF79FFF30469C
:10135000FFF79CFFFF20FFF799FFFC20FFF796FFA8
:10136000FF20FFF793FFBDE87040FF20FFF78EBF1F
:1013700010B50446EE20FFF789FF6120FFF786FFD6
:101380002046FFF783FFFF20FFF780FFFC20FFF7D9
:101390007DFFFF20FFF77AFFBDE81040FF20FFF739
:1013A00075BF70B5064614460D46EE20FFF76EFF7A
:1013B000B120FFF76BFF1820FFF768FF300AFFF737
:1013C00065FFF0B2FFF762FF280AFFF75FFFE8B2A0
:1013D000FFF75CFF200AFFF759FFE0B2FFF756FF67
:1013E000FF20FFF753FFFC20FFF750FFFF20FFF720
:1013F0004DFFBDE87040FF20FFF748BF70B50646BF
:1014000014460D46EE20FFF741FFB120FFF73EFFE7
:101410001020FFF73BFF300AFFF738FFF0B2FFF76D
:1014200035FF280AFFF732FFE8B2FFF72FFF200E43
:10143000FFF72CFFC4F30740FFF728FFC4F3072092
:10144000FFF724FFE0B2FFF721FFFF20FFF71EFFA9
:10145000FC20FFF71BFFFF20FFF718FFBDE87040DF
:10146000FF20FFF713BF70B5064614460D46EE2069
:10147000FFF70CFFB120FFF709FF1020FFF706FF71
:10148000300AFFF703FFF0B2FFF700FF280AFFF76B
:10149000FDFEE8B2FFF7FAFE200EFFF7F7FEC4F3F9
:1014A0000740FFF7F3FEC4F30720FFF7EFFEE0B2BB
:1014B000FFF7ECFEFF20FFF7E9FEFC20FFF7E6FE5A
:1014C000FF20FFF7E3FEBDE87040FF20FFF7DEBE20
:1014D00070B5054616460C46EE20FFF7D7FEB12044
:1014E000FFF7D4FE1020FFF7D1FE280AFFF7CEFE4B
:1014F000E8B2FFF7CBFE200AFFF7C8FEE0B2FFF725
:10150000C5FE3046FFF7C2FEFF20FFF7BFFEFC20FE
:10151000FFF7BCFEFF20FFF7B9FEBDE87040FF20DB
:10152000FFF7B4BE2DE9F04106461F4614460D46AE
:10153000EE20DDF81880FFF7A9FEB120FFF7A6FE28
:101540000720FFF7A3FE300AFFF7A0FEF0B2FFF777
:101550009DFE280AFFF79AFEE8B2FFF797FE0FB14B
:10156000012000E00020FFF791FE08F00F0040F09E
:101570008000FFF78BFE200EFFF788FEC4F30740C4
:10158000FFF784FEC4F30720FFF780FEE0B2FFF709
:101590007DFEFF20FFF77AFEFC20FFF777FEFF209D
:1015A000FFF774FEBDE8F041FF20FFF76FBE70B596
:1015B000054616460C46EE20FFF768FEB120FFF701
:1015C00065FE1020FFF762FE280AFFF75FFEE8B213
:1015D000FFF75CFE200AFFF759FEE0B2FFF756FE68
:1015E0003046FFF777FEFF20FFF750FEFC20FFF7A5
:1015F0004DFEFF20FFF74AFEBDE87040FF20FFF7D9
:1016000045BE000010B5FFF7F1FC0120FFF780FD9B
:101610002120FFF753FD0028FAD01020FFF7DAF859
:101620000220FFF7E3F80020FFF768FD0020FFF736
:101630007FFD4FF48060FFF771FD4FF42011002013
:10164000FFF786FD0120FFF77DFD3920FFF736FD0E
:101650000028FAD00220FFF785FD00BFFFF746FD06
:101660000828FBD110BD70B5064614460D46EE2085
:10167000FFF70CFEB120FFF709FE1020FFF706FE72
:10168000300AFFF703FEF0B2FFF700FE280AFFF76B
:10169000FDFDE8B2FFF7FAFD200AFFF7F7FDE0B223
:1016A000FFF7F4FDFF20FFF7F1FDFC20FFF7EEFD53
:1016B000FF20FFF7EBFDBDE87040FF20FFF7E6BD20
:1016C0004FF0E0210428086903D020F004000861ED
:1016D000704740F00400FAE702480168491C0160C5
:1016E000704700000800002010B5084C40F225515A
:1016F000204600F058F8002807D0204600F0D0F827
:10170000BDE81040C0B200F085BB10BD00380140FC
:101710000029818902D041F4005101E021F40051F7
:1017200081817047174910B588420AD101218C0385
:101730002046FFF74FFC2046BDE810400021FFF790
:1017400049BC1149884202D101214C0410E00F49E3
:10175000884202D101218C040AE00D49884202D15D
:101760000121CC0404E00B4988420AD101210C0577
:101770002046FFF717FC2046BDE810400021FFF788
:1017800011BC10BD0038014000440040004800403A
:10179000004C0040005000400246002012880A42DF
:1017A00000D00120704730B501F01F020124002550
:1017B000C1F3421304FA02F2012B0FD0022B0FD017
:1017C000838A4FEA11210088134204FA01F400EAE7
:1017D000040001D000B10125284630BD8389F0E71F
:1017E000038AEEE710B5C1F3421301F01F04012193
:1017F000A140012B07D0022B07D01430002A026829
:1018000005D00A4304E00C30F8E71030F6E78A43CD
:10181000026010BD30B50446008A85B00D464CF616
:10182000FF710840E98801432182A1894EF6F31037
:101830000140A8882A8910436A890A431043A0817D
:10184000A08A4FF6FF410840A9890143A18268465A
:10185000FFF7ECFB1148844201D1039800E00298A5
:10186000642200EBC00101EB001029686FF018053D
:101870008900B0FBF1F0B0FBF2F109010B096B43F9
:1018800000EB8300322303EB0010B0FBF2F000F01A
:101890000F000843208105B030BD00000038014032
:1018A0008088C0F308007047C1F308018180704749
:1018B00030B5044685B001210520FFF77FFB0121EB
:1018C0008803FFF77BFB4FF40070ADF81000182081
:1018D0008DF813000320194D8DF8120004A9284635
:1018E000FEF78EFF2815ADF8100004208DF81300C8
:1018F00004A92846FEF784FF114D2846FFF712FF82
:101900000020ADF80400ADF80600ADF80800ADF811
:101910000C000C20ADF80A00009469462846FFF739
:1019200079FF012240F225512846FFF75BFF012194
:101930002846FFF7EDFE05B030BD0000000801406D
:10194000003801402DE9F0419B4C01260025E0883C
:10195000C2B0042832D1E0684FF47A7790FBF7F1F7
:1019600007FB11020023062104200096FFF7DAFD91
:10197000E068002390FBF7F107FB11020721042028
:101980000096FFF7CFFD8DA201210420FFF70FFE87
:10199000E068401CE060B84200DBE560E068411EA2
:1019A000B1F5F97F02D84FF4784203E0B0F5FA7F41
:1019B00004DB1F2206210420FFF7F3FCE088062841
:1019C00010D12069A8B101287ED1A089012182B25D
:1019D0000620FFF748FEE068401EE060002801DCBA
:1019E000E5602561E08802274FF064080A280FD0DF
:1019F00064E001210620E268FFF700FDE0684FF493
:101A00008271401CE0608842ECDBC4E90316E9E720
:101A1000A1684046B1FBF0F208FB1212216A0A43AA
:101A200006D0A268B2FBF0F300FB13228AB112E0E9
:101A3000002205210A20FFF771FC012202210A2061
:101A4000FFF76CFC002201210A20FEF771FE2662DE
:101A500034E0012906D0A268B2FBF0F300FB1322A8
:101A60008AB112E0002202210A20FFF757FC01226E
:101A700003210A20FFF752FC012211460A20FEF73B
:101A800057FE27621AE002291FD0A268B2FBF0F3CA
:101A900008FB1320002863D1032961D1002204210F
:101AA0000A20FFF73BFC012205210A20FFF736FC44
:101AB000032201210A20FEF73BFE2562E0884FF455
:101AC00080760B2813D02AE04AE0002203210A2066
:101AD000FFF724FC012204210A20FFF71FFC022249
:101AE00001210A20FEF724FE03202062E6E7E069D8
:101AF000C8B3012834D1B422324901A8FEF740FB13
:101B00000097616901A84318002201210B20FEF70C
:101B1000EEFE6069801C6061B42800DB6561E088CE
:101B200010281DD1A168B1FBF8F208FB12100028A3
:101B300016D1E06960B3012812D12249B422B43130
:101B40006846FEF71DFB616901230DEB0102194692
:101B50001020FEF704FF6069401C60615A2829DAF2
:101B600042B0BDE8F081FFE73246174901A8FEF711
:101B700007FB0097616901A84318002201210B208F
:101B8000FEF7B5FE6069801C6061FF28C6DAC6E713
:101B900032460D496846FEF7F3FA616901230DEB01
:101BA000010219461020FEF7DAFE6069401C6061F0
:101BB000FF28D5DB6561D3E700000020BBFAB7BF83
:101BC00031300000801E000828200008FEE70000D9
:101BD0000FB4084B10B504A902AA039800F01BF833
:101BE000044602A9002000F081F8204610BC5DF8F0
:101BF00014FB0000ED1C000802E008C8121F08C119
:101C0000002AFAD170477047002001E001C1121F7D
:101C1000002AFBD170472DE9F84F99469246884635
:101C20000546002706E025280AD051464A46904737
:101C30006D1C7F1C28780028F5D13846BDE8F88F48
:101C4000002315F8011F18462E2915D115F8011F7C
:101C500004232A290DD06FF02F022978A1F1300436
:101C6000092C09D800EB800002EB400008446D1CF1
:101C7000F3E758F8040B6D1C2A78002ADDD0632A9C
:101C800007D0732A0FD0104651464A4690477F1C12
:101C90002AE018F8042B8DF8002000218DF801109F
:101CA0006E46012103E058F8046B4FF0FF315A07EC
:101CB0004FF0000401D409E0641C84420BDA8C422A
:101CC000FADB325D002AF7D105E0641C8C42FCDBB4
:101CD000305D0028F9D1274404E016F8010B514685
:101CE0004A469047641EF8D26D1CA3E70A68531C4D
:101CF0000B6010707047000030B5054A11680A2368
:101D0000B0FBF3F415686D1AAC42F9D230BD000097
:101D1000080000200025FFF775FCFEF74DFE00F0DF
:101D200095F84FF49640FFF7C3FD00F083F84FF4A9
:101D30009670FFF7E1FF154E154C00274021134820
:101D400000F02CF8010005D07078072812D00F4859
:101D5000FFF7BEF8207838B1A068401B0A2803D3EB
:101D60002770A568FFF7EEFDA068C007E6D1FFF772
:101D7000E9FDE3E771B607480168074A01F4E0614D
:101D800011430160BFF3408FFEE7000044000020D4
:101D9000000000200CED00E00400FA05F0B51C4D39
:101DA00000273A46194CB5F800C019E0664506D040
:101DB000174A121DB25C761CC6F308036B80238899
:101DC0000BB9EE2A0CD18B4202D2C2545B1C238089
:101DD000636842EA032303F540366360761C11D042
:101DE0006E88ACEB060303F500734FEAE37E03EB6A
:101DF000DE5E6FF3080EA3EB0E031B041B0CD5D1A4
:101E00000020F0BD208867602780F0BD3C000020E6
:101E100084000020064910B50B884C885A1CC2F378
:101E20000802944202D00C1D18550A8010BD000013
:101E3000840000200349002048800880024948604F
:101E400008807047840000203C00002010B56FF02F
:101E50000400FFF735FC4FF0E02005494161054AD9
:101E6000F02182F8141D002181610721016110BD5C
:101E7000FF5207000FE000E09001000101000000A8
:101E80000009121B242D363F48515A636C757E871A
:101E90009099A2ABB4BDC6CFD8E1EAF3FC00091219
:101EA0001B242D363F48515A636C757E879099A24A
:101EB000ABB4BDC6CFD8E1EAF3FC0009121B242D58
:101EC000363F48515A636C757E879099A2ABB4BD7A
:101ED000C6CFD8E1EAF3FC0009121B242D363F4897
:101EE000515A636C757E879099A2ABB4BDC6CFD8AA
:101EF000E1EAF3FC0009121B242D363F48515A63D6
:101F00006C757E879099A2ABB4BDC6CFD8E1EAF3D9
:101F1000FC0009121B242D363F48515A636C757E14
:101F2000879099A2ABB4BDC6CFD8E1EAF3FC00001C
:101F3000000000000009121B242D363F48515A634F
:101F40006C757E879099A2ABB4BDC6CFD8E1EAF399
:101F5000FC0009121B242D363F48515A636C757ED4
:101F6000879099A2ABB4BDC6CFD8E1EAF3FC0009D3
:101F7000121B242D363F48515A636C757E87909909
:101F8000A2ABB4BDC6CFD8E1EAF3FC0009121B2412
:101F90002D363F48515A636C757E879099A2ABB439
:101FA000BDC6CFD8E1EAF3FC0009121B242D363F51
:101FB00048515A636C757E879099A2ABB4BDC6CF69
:101FC000D8E1EAF3FC0009121B242D363F48515A90
:101FD000636C757E879099A2ABB4BDC6CFD8E1EA99
:101FE000F3FC000000000000DDDDDDDDDCBBBBDD5F
:101FF000DDDDDDDDDDDDDDDD9888888888888888A9
:1020000077777777778888888555555666666666C8
:1020100066666666666888888333333222222222A7
:10202000222222222228888D0101010101020304BB
:1020300006080A0D0F1316191D21262A2F34393EC2
:1020400044494F555B61676D73797F868C92989E8A
:10205000A4AAB0B6BBC1C6CBD0D5D9DEE2E6E9ECC6
:10206000F0F2F5F7F9FBFCFDFEFEFEFEFEFDFCFBCB
:10207000F9F7F5F2F0ECE9E6E2DED9D5D0CBC6C14E
:10208000BBB6B0AAA49E98928C868079736D676166
:102090005B554F49443E39342F2A26211D1916130A
:1020A0000F0D0A08060403020101010101020304E5
:1020B00006080A0D0F1316191D21262A2F34393E42
:1020C00044494F555B61676D73797F868C92989E0A
:1020D000A4AAB0B6BBC1C6CBD0D5D9DEE2E6E9EC46
:1020E000F0F2F5F7F9FBFCFDFEFEFEFEFEFDFCFB4B
:1020F000F9F7F5F2F0ECE9E6E2DED9D5D0CBC6C1CE
:10210000BBB6B0AAA49E98928C868079736D6761E5
:102110005B554F49443E39342F2A26211D19161389
:102120000F0D0A0806040302206DCA04A06FCA043A
:10213000944B95005421000800000020440000004A
:10214000F81B000898210008440000204406000005
:10215000081C000800000000000000000000000053
:10216000000000000000000000000000010000006E
:10217000000000000000000000000000020406084B
:10218000000000000102030401020304060708091D
:08219000000000000000000047
:04000005080001519D
:00000001FF
